:020000040800F2
:10000000F0060020B5010008CD190008C519000848
:10001000C919000895030008E11900080000000054
:10002000000000000000000000000000D5190008DA
:100030009903000800000000D1190008D919000830
:10004000CF010008CF010008CF010008CF01000850
:10005000CF010008CF010008CF010008CF01000840
:10006000CF010008CF010008CF010008CF01000830
:10007000CF010008CF010008CF010008CF01000820
:10008000CF010008CF010008BD020008CF01000821
:10009000CF010008CF010008CF010008CF01000800
:1000A000CF010008CF010008CF010008CF010008F0
:1000B000CF010008CF010008CF010008CF010008E0
:1000C000CF010008CF010008CF010008CF010008D0
:1000D000CF010008CF010008CF010008CF010008C0
:1000E000CF010008CF010008CF01000800F002F89E
:1000F00000F050F814A696E8000CB244B344DA4578
:1001000001D100F047F8BAE80F000FA696E83000DA
:10011000A5EB040504EB0607AAEB0704A7F101070A
:100120004FEA15154FEA3414A4F10104AC4201D38F
:1001300000F030F813F0010F18BFFB1A43F0010371
:1001400000F001F8DBE71847E81A0000081B000080
:10015000103A24BF78C878C1FAD8520724BF30C8F3
:1001600030C144BF04680C60704700007047000055
:100170000023002400250026103A28BF78C1FBD8B0
:10018000520728BF30C148BF0B6070471FB51FBD65
:1001900010B510BD00F058F81146FFF7F7FF01F059
:1001A00021FC00F076F803B4FFF7F2FF03BC00F087
:1001B0007DF800000948804709480047FEE7FEE750
:1001C000FEE7FEE7FEE7FEE7FEE7FEE7FEE7FEE707
:1001D00004480549054A064B70470000DD19000830
:1001E000ED000008F0000020F0060020F0020020E2
:1001F000F00200204FF0000200B5134694469646E8
:10020000203922BFA0E80C50A0E80C50B1F1200129
:10021000BFF4F7AF090728BFA0E80C5048BF0CC0D7
:100220005DF804EB890028BF40F8042B08BF704735
:1002300048BF20F8022B11F0804F18BF00F8012BA7
:100240007047704770477047754600F02BF8AE4610
:1002500005006946534620F00700854618B020B5D2
:10026000FFF7B6FFBDE820404FF000064FF0000753
:100270004FF000084FF0000BAC46ACE8C009ACE80A
:10028000C009ACE8C009ACE8C00921F007018D46FF
:10029000704710B50446AFF300802046BDE810401B
:1002A000FFF781BF00487047100000200149182067
:1002B000ABBEFEE7260002007047000010B540F21A
:1002C0007404C2F20004204600F028F940F27002E3
:1002D0000146C2F2000220461160BDE8104000F065
:1002E00021B90000B0B582B0044600200190216819
:1002F0008A68D2074BD1886840F00100886040F2DC
:100300000800C2F2000000684DF68361C4F21B31A0
:10031000A0FB0101880C01900198A0B1019801385F
:100320000190019878B1019801380190019850B17D
:10033000019801380190019828B101980138019085
:1003400001980028EAD100F0C9FB21688968C90733
:100350001CD1054603E000BF8068C00716D100F03D
:10036000BDFB411B20680329F6D38168C907F3D17F
:10037000A06A40F01000A062E06A40F00100E06274
:10038000002084F82400012002B0B0BD002002B09B
:10039000B0BD0000FEE7000070470000704700009D
:1003A00010B581B00022009290F82420012A03D1D8
:1003B0000221084601B010BD4B680122062B80F8CF
:1003C000242033D8D0F800C003EB83035A1F1F2327
:1003D000DCF834E003FA02F40B682EEA040403FAB2
:1003E00002F22243CCF83420092B03EB430249D913
:1003F000DCF80CE01E3A0724896894402EEA0404D5
:10040000914023F001022143102ACCF80C1043D173
:1004100042F20841C4F20101A1F10802944543D01F
:10042000816A41F020018162012136E0D0F800C0EC
:100430000C2B03EB830213D8233A1F23DCF830E0A4
:1004400003FA02F40B682EEA040403FA02F22243D0
:10045000CCF83020092B03EB4302C9D812E000BFCF
:10046000413A1F23DCF82CE003FA02F40B682EEA71
:10047000040403FA02F22243CCF82C20092B03EBEC
:100480004302B5D8DCF81030072489689440A343B0
:1004900091401943CCF810100021002280F824204C
:1004A000084601B010BD00BF0A681202F4D40A6801
:1004B000102B42F400020A60EED140F20801C2F2B1
:1004C000000109684DF68362C4F21B32A1FB0212DF
:1004D000910C01EB81014900009100990029DBD0CA
:1004E00000990139009100990029D5D0009901396E
:1004F000009100990029CFD000990139009100990D
:100500000029C9D0009901390091009900294FF0C4
:100510000001E5D1C1E70000704700000068C06C31
:100520007047000070B50446006805684668B1066B
:1005300027D515F0020124D0A16AC90603D4A16A07
:1005400041F40071A162816801F46021B1F5602F6E
:1005500010D1217B71B9416821F020014160A06A6E
:1005600020F48070A062A06AC00403D4A06A40F0A6
:100570000100A0622046FFF7CFFF20686FF0120154
:100580000160310633D515F0040130D0A16AC906E7
:1005900003D4A16A41F40051A162816801F4E041F1
:1005A000B1F5E04F10D1416821F080014160A06AAF
:1005B00020F48050A062A06AC00511D4A06A40F067
:1005C0000100A0620CE000BF4168490508D48168C1
:1005D00001F46021B1F5602F02D1217B0029E2D026
:1005E0002046FFF7DBFE20686FF00C01016070060B
:1005F0000ED515F0010008BF70BDA06A40F4803030
:10060000A062204600F0B6F820686FF0010101609A
:1006100070BD0000002804BF01207047B0B504463B
:10062000806A28B121688868C0070CD115E000BF36
:100630000020E06284F82400204600F09DF8216844
:100640008868C00709D0886820F00100886000F041
:1006500045FA21688A68D20726D1A06AC0063AD432
:10066000A06A41F2021290430230A062E069D4E92C
:10067000013240EA030C531EB3FA83F35D091346BB
:10068000B2F5807F18BF2B02207D257B01284CEA24
:10069000450030D135B3A56A45F02005A562E56A6D
:1006A00045F00105E56226E0054602E08868C007DE
:1006B000D3D000F013FA401B21680328F6D38868D2
:1006C000C007F3D0A06A40F01000A062E06A40F0DA
:1006D0000100E062A06AA06A40F01000A062012060
:1006E000B0BD00BFD4F818C04EF60005CFF6FF75B8
:1006F00005EB4C352B434D68B2F5807F25F46945F9
:1007000043EA05034B608B684FF2FD75CFF6E17548
:1007100003EA050343EA00038B6001D0012A07D1F5
:1007200022690023CFF6F07303EB025201E000BF11
:100730000022CB6A23F470031A43CA62896840F628
:10074000FE62CFF61F721140814207D10020E062A5
:10075000A16A012262F30101A162B0BDA06A40F06A
:10076000100020F00200A062E06A40F00100E062A8
:100770000120B0BD7047000080B586B0014640F64C
:100780000000C4F20100096800F5E05291424FF008
:100790000001CDE9041101D006B080BD41F218017D
:1007A000C4F202010A6842F400720A600A6802F4A4
:1007B00000720192019A0A6842F004020A60096814
:1007C00001F004010191019901210291032103919A
:1007D00002A900F075F812200021002200F0FEF9B5
:1007E000122000F0E9F906B080BD000010B5044603
:1007F00090F82400012804BF022010BD012084F8D5
:1008000024002046FFF76EFD20B1002084F824006C
:10081000012010BD42F2044C2068A16AC4F2010C10
:1008200040F6017291430CF57F7201F580719042A0
:10083000A16237D0A16A21F48011A1624168490503
:1008400004D5A16A012363F30D31A162A16A0023DB
:10085000C9044FF0000144BFE16A21F00601E162E2
:100860006FF0020184F824300160416841F02001FA
:100870004160816801F46021B1F5602F06D190429A
:100880000AD1DCF8001011F4702F05D0816841F412
:1008900080118160002010BD816841F4A001816059
:1008A000002010BDDCF8001011F4702FC2D0A16A36
:1008B00041F48011A162DCF800104905C1D4C5E7FC
:1008C0002DE9F04F82B00E68002E00F0FD8041F25D
:1008D0000042C4F20102042340F2004E904208BFDD
:1008E00003234FF6FF7CC4F2010E00930024012382
:1008F000C1F2100C4FF0000A4FF0000944E000BFB5
:10090000012704F00C030F229A402BEA020207FA97
:1009100003F34FEA9A051A4346F825204E6840F241
:100920000C45F202DEF8082054BF22EA080242EA2F
:100930000802C4F20105CEF808202A68B30254BFA9
:1009400022EA080242EA08022A60B303DEF8042021
:1009500054BF22EA080242EA0802F303CEF8042058
:10096000DEF800204FF0010354BF22EA080242EAF9
:100970000802CEF800200E680AF1010A36FA0AF2DF
:1009800004F1040400F0A08003FA0AFB16EA0B0845
:10099000F1D04E68664511DC122E55D8DFE806F01E
:1009A000340A44485454545454545454545454548D
:1009B000544C5000D1F80C9046E000BF4FF6FF7247
:1009C000C1F2210296420FDC0022C1F211029642CE
:1009D0001AD00022C1F21202964215D00022C1F2B2
:1009E0002102964210D02FE00022C1F2220296424C
:1009F0000AD00022C1F23102964205D00022C1F293
:100A00003202964220D100BF8A684AB1012A14BF3F
:100A1000C0F814B0C0F810B04FF0080914E000BFDF
:100A20004FF0040910E000BFCA6802F108090BE0AA
:100A30004FF0000908E000BFCA6802F1040903E0B2
:100A4000CA6802F10C0900BF22460646B8F5807F4D
:100A500024BF203A043637680F25954027EA05055C
:100A600009FA02F22A433260CA79D2067FF583AFCF
:100A700041F21803C4F202031A68AEF57E7642F022
:100A800001021A601A6802F001020192019A2AF02A
:100A9000030256F802B040F60002C4F2010290428E
:100AA00010D040F60042C4F2010290423FF428AF59
:100AB00041F20002C4F20102009F904208BF0227E7
:100AC0001FE700BF00271CE702B0BDE8F08F000061
:100AD000002A08BF090401617047000040F2EC00E1
:100AE000C2F200000068704740F2000040F2EC01E2
:100AF000C2F20000C2F2000100780A6810440860E7
:100B00007047000080B542F20000C4F202000168A4
:100B100041F010010160032000F08CF80F2000F07C
:100B200005F800F027F8002080BD000070B540F205
:100B30000006C2F2000640F208013278C2F200015B
:100B40004FF47A730968B3FBF2F20446B1FBF2F199
:100B5000084600F0E3FB0F2C4FF0010508D838B928
:100B60004FF0FF3021460022002500F037F8746076
:100B7000284670BD82B041F21800C4F2020001683C
:100B8000022241F001010160016801F001010191BF
:100B90000199416841F080514160406800F0805007
:100BA000009000980420C4F20100016862F31A6109
:100BB000016002B070470000002848BF704700F095
:100BC0001F01012202FA01F11C2202EAD0004EF2BA
:100BD0000012CEF2000281507047000010B54EF6B0
:100BE0000C5CCEF2000CDCF80030C3F3022E8EF069
:100BF0000704042C28BF0424BEF103034FF0FF3E7A
:100C00000EFA04F438BF0023A14399400EFA03F30F
:100C10009A43114300F00F0200F160430901043AC6
:100C200003F564436244002848BF02F10C031970C5
:100C300010BD00004EF60C51CEF200010A684FF6CE
:100C4000FF031A4060F30A2242F0806040F0FD701A
:100C5000086070472DE9F04182B00446007841F207
:100C60001C06C007C4F202064AD030685FEAC0081A
:100C700008D4306840F080503060306800F0805018
:100C80000190019847F20007C4F200073868C005D8
:100C900012D4386840F480703860FFF71FFF0546B3
:100CA0003868C00508D4FFF719FF401B6428F7D93E
:100CB000032002B0BDE8F081706810F4407012D0DB
:100CC000616801F4407188420DD0706840F2404282
:100CD000C4F24222012320F4407113600023C007B4
:100CE0001360716026D17068616820F44070084319
:100CF000B8F1000F706003D4306820F0805030608D
:100D00002068810707D556F8181CA26821F44041D5
:100D1000114346F8181CC00607D556F8180CE168B0
:100D200020F48000084346F8180C002002B0BDE80B
:100D3000F08100BFFFF7D2FE054641F2883700BFC1
:100D400070688007CFD4FFF7C9FE401BB8424FF050
:100D50000300F5D9EAE70000002804BF012070472E
:100D60002DE9F04381B042F20008C4F202080446C3
:100D7000D8F800000D4600F0070088420CD2D8F8E1
:100D8000000020F007002843C8F80000D8F8000051
:100D900000F00700A8426CD1206841F204098107E5
:100DA000C4F2020917D5410705D5D9F8001041F45E
:100DB000E061C9F80010010705D5D9F8001041F429
:100DC0006051C9F80010D9F80010A26821F0F001B4
:100DD0001143C9F80010C00742D1D8F8000000F054
:100DE0000700A8420CD9D8F8000020F007002843DB
:100DF000C8F80000D8F8000000F00700A84238D179
:100E00002068410707D5D9F80010E26821F4E061B5
:100E10001143C9F80010000708D5D9F8000021696E
:100E200020F4605040EAC100C9F80000D9F8002061
:100E300002F00C00082841F20020C0F27A0051D1E3
:100E400041F62043C2F38341C0F60003595CD2034C
:100E50003CD440F60010C0F23D00484342E000BFE1
:100E6000606802280AD001282AD159F8041C890395
:100E700008D4012001B0BDE8F08300BF59F8041C7C
:100E80008901F6D5D9F8001021F003010843C9F80B
:100E90000000FFF723FE064641F28837D9F800002C
:100EA000616800F00C00B0EB810F96D0FFF716FEE2
:100EB000801BB842F2D9032001B0BDE8F08300BF27
:100EC00059F8041C8907D4D5DCE700BFD9F8002005
:100ED00041F61E43C2F34042C0F600039A5C484309
:100EE000B0FBF2F0D9F8001041F60E42C1F3031145
:100EF000C0F60002515C40F2080220FA01F140F213
:100F00000400C2F200000068C2F200021160FFF7A4
:100F10000DFE002001B0BDE8F0830000002804BFF2
:100F2000012070472DE9F04182B00446007841F27B
:100F30000006C007C4F202060CD0706800F00C0076
:100F4000042840F081803068800303D56068002861
:100F500000F04E81207880071BD5706810F00C0FD0
:100F600009D0706800F00C00082840F08B80706891
:100F7000C00300F187803068800703D5206901280D
:100F800040F036813068616920F0F80040EAC10025
:100F900030602078000713D4207840072CD4E5690E
:100FA000002D00F02081706800F00C00082840F04F
:100FB000AF80012D40F00C81012002B0BDE8F0812E
:100FC000A069002800F08C800020C4F2422001219A
:100FD000C0F88014FFF782FD054600BF706A8007E5
:100FE00000F1BA80FFF77AFD401B0228F6D90320F2
:100FF00002B0BDE8F08100BFF0695FEAC00808D424
:10100000F06940F08050F061F06900F0805000908D
:10101000009847F20007C4F200073868C0054DD4B5
:10102000386840F480703860FFF758FD054600BF0F
:101030003868C00542D4FFF751FD401B6428F7D93A
:10104000032002B0BDE8F081706800F00C000828B1
:1010500003D17068C0033FF576AF6068002800F0E8
:101060000981B0F5A02F00F01D81B0F5803F00F0A0
:101070001D81306820F480303060306820F480209A
:1010800017E100BF2069002840F20000C4F24220AE
:1010900000F08C8001210160FFF720FD054600BFB4
:1010A000306880073FF56EAFFFF718FD401B022840
:1010B000F6D9032002B0BDE8F08100BFE068002847
:1010C00000F09A80052800F0B180012800F0B2807D
:1010D000306A20F001003062306A20F00400ACE099
:1010E0000020C4F242200021C0F88014FFF7F6FC73
:1010F000054600BF706A80077FF54EAFFFF7EEFC34
:10110000401B0228F6D9032002B0BDE8F08100BFE1
:101110000027C4F2422700203866FFF7DFFC022DCB
:1011200005460DD13068800140F1D680FFF7D6FC2E
:10113000401B02284FF00300F4D902B0BDE8F08153
:10114000306880014FD5FFF7C9FC401B02284FF0E3
:101150000300F5D9F1E700BF40F20800C2F2000039
:10116000006844F6D351C1F26201A0FB0101480AB4
:10117000019000BF00BF0198411E002801913FF47B
:101180000BAF00BF0198411E002801913FF404AF4E
:1011900000BF0198411E002801913FF4FDAE00BF41
:1011A0000198411E00280191E4D1F5E6002101607B
:1011B000FFF794FC054600BF306880077FF5E9AE75
:1011C000FFF78CFC401B02284FF00300F4D9B4E772
:1011D0007068216A00F480328A4209D1616A00F4A1
:1011E0007010884204D1002002B0BDE8F08100BF39
:1011F000012002B0BDE8F081306A20F001003062C9
:10120000306A20F004003062FFF768FC054641F2C6
:10121000883700BF306A800722D5FFF75FFC401B8C
:10122000B8424FF00300F5D987E700BF306A40F0BD
:1012300004003062306A40F001003062FFF74EFC7B
:10124000054641F2883700BF306A800708D4FFF7AF
:1012500045FC401BB842F7D9032002B0BDE8F0813D
:10126000B8F1000F3FF59BAEF06920F08050F061BF
:1012700095E600BF306820F480303060306820F49C
:1012800080203060FFF72AFC054600BF30688003ED
:101290007FF560AEFFF722FC401B64284FF003008F
:1012A000F4D94AE7306840F480203060306840F478
:1012B00080303060FFF712FC054600BF30688003C5
:1012C0003FF548AEFFF70AFC401B6428F6D903201F
:1012D00002B0BDE8F08100BF206AB0F5803F05D1C3
:1012E0007168A26821F40031114371607168626A0B
:1012F00021F4741111430843706001203866FFF730
:10130000EDFB0446306880013FF56DAFFFF7E6FB6B
:10131000001B02284FF00300F4D90EE7411E002005
:10132000B0EB116F1CBF012070474EF21002CEF2DD
:10133000000251604EF62351CEF20001F0230B70F3
:10134000072190601160704790F83C20012A4FF00F
:10135000020236D010B580F83D200268D2F804E0D1
:10136000D2F808C00C682EF07003234340F2FF74DB
:10137000C4F20004A24253600ADCB2F1804F13D0E1
:1013800040F20043C4F200039A420DD011E000BFC6
:1013900042F60043C4F201039A4205D040F600032E
:1013A000C4F200039A4204D149682CF08003194327
:1013B00091600121002280F83D1080F83C20BDE8BA
:1013C0001040104670470000002804BF01207047FD
:1013D00010B5044690F83D0028B9002084F83C0080
:1013E000204600F067F8022084F83D00206840F2B3
:1013F000FF730268C4F2000342F6004C9842C4F244
:10140000010C15DCB0F1804F1AD040F20041C4F25B
:101410000001884214D0984218DCB0F1804F1DD0F2
:1014200040F20041C4F20001884217D01AE000BF28
:10143000604505D040F60001C4F200018842EAD1BF
:10144000A16822F070020A439842E6DD604505D0AB
:1014500040F60001C4F20001884203D1216922F460
:1014600040720A43A36922F08001D4F804E0E268E4
:10147000194360450160C262C0F828E002D1616989
:10148000CCF8301001214161002084F8461084F826
:101490003E1084F83F1084F8401084F8411084F81E
:1014A000421084F8431084F8441084F8451084F8FE
:1014B0003D1010BD7047000090F83C20012A4FF00D
:1014C000020200F0C58080B580F83D20D0F800C051
:1014D0004FF67772DCF8083023EA0202CCF80820D5
:1014E0000B684F2B28DC1F2B44DD202B45D0302BE5
:1014F00043D0402B40F0AE80D1F804E0C968DCF85E
:101500002030DCF8202022F00102CCF82020DCF88A
:10151000182022F0F00242EA011123F00A0242EA06
:101520000E02CCF81810CCF82020DCF8081041F09E
:10153000470121F0300180E06F2B27DDB3F5005F1C
:1015400048D0B3F5805F7AD0702B40F08380D1E92A
:1015500001E3C968DCF8082043EA0E0322F47F4265
:1015600043EA01211143CCF80810DCF8081041F0DF
:10157000770162E00BB1102B6CD1DCF8081021F080
:101580007001194341F0070157E000BF502B35D0DF
:10159000602B5FD1D1F804E0C968DCF82030DCF8BA
:1015A000202022F01002CCF82020DCF8182022F4B1
:1015B000704242EA013123F0A00242EA0E12CCF856
:1015C0001810CCF82020DCF8081041F0670121F059
:1015D000100132E0D1E901E3C968DCF8082043EAF0
:1015E0000E0322F47F4243EA01211143CCF8081094
:1015F000DCF8081041F480411FE000BFD1F804E09E
:10160000C968DCF82030DCF8202022F00102CCF898
:101610002020DCF8182022F0F00242EA011123F029
:101620000A0242EA0E02CCF81810CCF82020DCF8AE
:10163000081041F0570121F02001CCF808100022D9
:10164000012180F83D10002180F83C10BDE8804069
:10165000104670470122F3E780B586B040F20041A2
:101660000068C4F2000100228842049202D006B051
:1016700080BD00BF41F21800C4F20200026842F0CF
:1016800004020260006800F004000190019840200C
:10169000029002200390059001F5823002A9FFF725
:1016A0000FF906B080BD000090F83C30012B04BF5C
:1016B000022070474FEAB202032A3DD82DE9F043D9
:1016C000DFE802F002407CB6036842F600461D6A7D
:1016D0001A6AC4F2010622F001021A621A465C6814
:1016E00052F818CFB3428E68D1F800E025F0020519
:1016F00045EA06050CD1CE68D1E9057824F440749A
:1017000025F00C0526F004063C43354344EA080462
:101710002CF0730747EA0E075C609F614F68096908
:101720005F631D629F6947F008079F619F6927F00B
:1017300004079F61ACE000BF0121002280F83C203B
:1017400008467047036842F600461D6A1A6AC4F2EA
:10175000010622F010021A621A46D3F804C052F8A9
:10176000184FB3428E68D1F800E025F0200545EA15
:1017700006150FD1CE68D1E905986FF0400725F026
:10178000C00507EA061635432CF4406748EA090607
:1017900047EA860C24F4E64444EA0E27C3F804C062
:1017A0009F614F6809699F631D629F6947F40067E5
:1017B0009F619F6927F480679F6168E0036842F634
:1017C00000461D6A1A6AC4F2010622F480721A6287
:1017D0001A46D3F804C052F81CEFB3428E680C6866
:1017E00025F4007545EA06250FD1CE68D1E90598A4
:1017F000360240F2FF4725F44065BE4335432CF4E2
:10180000405748EA090647EA061C2EF073072743AB
:10181000C3F804C0DF614F680969DF631D62DF69D7
:1018200047F00807DF61DF6927F00407DF612FE079
:10183000036842F60047D3F820C01A6AC4F20107D1
:1018400022F480521A621A465C6852F81C5FD1F882
:1018500000E08E68BB4204D14F6924F4804444EA1E
:1018600087142CF4005747EA063725F4E64646EA83
:101870000E265C60DE614E6809691E641F62DF69C6
:1018800047F40067DF61DF6927F48067DF610902E1
:101890001368194311600021BDE8F043002280F86D
:1018A0003C20084670470000002804BF0120704714
:1018B00010B5044690F83D0028B9002084F83C009B
:1018C000204600F067F8022084F83D00206840F2CE
:1018D000FF730268C4F2000342F6004C9842C4F25F
:1018E000010C15DCB0F1804F1AD040F20041C4F277
:1018F0000001884214D0984218DCB0F1804F1DD00E
:1019000040F20041C4F20001884217D01AE000BF43
:10191000604505D040F60001C4F200018842EAD1DA
:10192000A16822F070020A439842E6DD604505D0C6
:1019300040F60001C4F20001884203D1216922F47B
:1019400040720A43A36922F08001D4F804E0E268FF
:10195000194360450160C262C0F828E002D16169A4
:10196000CCF8301001214161002084F8461084F841
:101970003E1084F83F1084F8401084F8411084F839
:10198000421084F8431084F8441084F8451084F819
:101990003D1010BD006840F20041C4F200018842D1
:1019A00018BF704781B041F21C00C4F20200016808
:1019B00041F002010160006800F002000090009810
:1019C00001B07047FEE70000FEE70000FEE7000000
:1019D0007047000070470000FFF786B870470000AE
:1019E000FEE7000094B0FFF78DF80AAC201D24211B
:1019F000FEF700FC02200A9001200E901020002526
:101A00000F9020460395CDE901551195FFF786FA11
:101A100020B1EFF3108072B6FEE700BF0F20CDE9D2
:101A2000050505A80021CDE907550995FFF794F9AB
:101A300020B1EFF3108072B6FEE700BF022600254A
:101A4000684600960295FFF705F928B1EFF310807C
:101A500072B600BFFEE700BF41F21800C4F20200F8
:101A6000016840F6000441F0040101600068C4F21E
:101A7000010400F004000A900A9820463021002258
:101A80003027FFF725F801200BA961C10AA92046DC
:101A90000A97FEF715FF40F27006C2F20006A4F5A1
:101AA0008231304640F8341F072140F2E732089572
:101AB000CDE90655CDE90055CDE90F55CDE90D55D8
:101AC000C0E90115C0E903258561FFF77DFC28B158
:101AD000EFF3108072B600BFFEE700BF4FF48050F6
:101AE00006F13405059005A92846FFF7E5FC28B165
:101AF000EFF3108072B600BFFEE700BF2846FFF785
:101B0000D3FE28B1EFF3108072B600BFFEE700BF2E
:101B100069462846FFF718FC20B1EFF3108072B633
:101B2000FEE700BF60200A904FF4FA700B90002788
:101B30000AA9284600220C970E97FFF7B5FD28B199
:101B4000EFF3108072B600BFFEE700BF2846FFF734
:101B500083FD04F5E051304640F8041F4FF4602146
:101B6000012507730775C161C0E901770561FEF7BB
:101B700051FD28B1EFF3108072B600BFFEE700BF41
:101B80004FF00008CDE90A85351D0AA92846CDF891
:101B90003080FEF705FC28B1EFF3108072B600BF6D
:101BA000FEE700BF4FF63447CFF6FE7740F6B73971
:101BB0004FF4FA7A40F6B83B0CE000BF2046102103
:101BC000002244F807A0FEF783FF204620210122CF
:101BD000FEF77EFF2846FEF709FE3068B0F57A7FF3
:101BE00004DA2046302144F807800CE04845E5D966
:101BF0005845EFD020461021012244F807A0FEF7F7
:101C000067FF204620210022FEF762FFE2E7000086
:101C10000000000000000102030406070809010299
:101C200002030405060708090A0B0C0D0E0F10101D
:101C3000501C0008000000201000000050010008A7
:101C4000601C000810000020E00600007001000881
:101C500001000000100000000024F400000000005B
:04000005080000ED02
:00000001FF
