:020000040800F2
:1000000000070020B5010008ED17000839130008AB
:10001000E91700087102000801180008000000003C
:10002000000000000000000000000000F5170008BC
:100030007502000800000000F1170008F917000819
:10004000CF010008CF010008CF010008CF01000850
:10005000CF010008CF010008CF010008CF01000840
:10006000CF010008CF010008CF010008CF01000830
:10007000CF010008CF010008CF010008CF01000820
:10008000CF010008CF010008CF010008CF01000810
:10009000CF010008CF010008CF010008CF01000800
:1000A000CF010008CF010008CF010008CF010008F0
:1000B000CF010008CF010008CF010008CF010008E0
:1000C000CF010008CF010008CF010008CF010008D0
:1000D000CF010008CF010008CF010008CF010008C0
:1000E000CF010008CF010008CF01000800F002F89E
:1000F00000F050F814A696E8000CB244B344DA4578
:1001000001D100F047F8BAE80F000FA696E83000DA
:10011000A5EB040504EB0607AAEB0704A7F101070A
:100120004FEA15154FEA3414A4F10104AC4201D38F
:1001300000F030F813F0010F18BFFB1A43F0010371
:1001400000F001F8DBE718474C1900006C190000BB
:10015000103A24BF78C878C1FAD8520724BF30C8F3
:1001600030C144BF04680C60704700007047000055
:100170000023002400250026103A28BF78C1FBD8B0
:10018000520728BF30C148BF0B6070471FB51FBD65
:1001900010B510BD00F031F81146FFF7F7FF01F080
:1001A000D3FB00F04FF803B4FFF7F2FF03BC00F0FD
:1001B00057F800000948804709480047FEE7FEE776
:1001C000FEE7FEE7FEE7FEE7FEE7FEE7FEE7FEE707
:1001D00004480549054A064B70470000FD17000812
:1001E000ED000008000100200007002000030020AF
:1001F00000030020704770477047754600F02CF8E8
:10020000AE4605006946534620F00700854618B003
:1002100020B5FFF7DDFFBDE820404FF000064FF0AE
:1002200000074FF000084FF0000BAC46ACE8C009E7
:10023000ACE8C009ACE8C009ACE8C00921F007018E
:100240008D46704710B50446AFF300802046BDE8E8
:100250001040FFF7A8BF00000048704720000020B2
:1002600001491820ABBEFEE72600020070470000DF
:10027000FEE7000070470000B0B5044600F018F932
:10028000054640F20000C2F200000078611C18BF71
:10029000044400BF00F00CF9401BA042FAD3B0BDEB
:1002A0002DE9F04F82B00E68002E00F0FD8041F283
:1002B0000042C4F20102042340F2004E904208BF03
:1002C00003234FF6FF7CC4F2010E009300240123A8
:1002D000C1F2100C4FF0000A4FF0000944E000BFDB
:1002E000012704F00C030F229A402BEA020207FABE
:1002F00003F34FEA9A051A4346F825204E6840F268
:100300000C45F202DEF8082054BF22EA080242EA55
:100310000802C4F20105CEF808202A68B30254BFCF
:1003200022EA080242EA08022A60B303DEF8042047
:1003300054BF22EA080242EA0802F303CEF804207E
:10034000DEF800204FF0010354BF22EA080242EA1F
:100350000802CEF800200E680AF1010A36FA0AF205
:1003600004F1040400F0A08003FA0AFB16EA0B086B
:10037000F1D04E68664511DC122E55D8DFE806F044
:10038000340A4448545454545454545454545454B3
:10039000544C5000D1F80C9046E000BF4FF6FF726D
:1003A000C1F2210296420FDC0022C1F211029642F4
:1003B0001AD00022C1F21202964215D00022C1F2D8
:1003C0002102964210D02FE00022C1F22202964272
:1003D0000AD00022C1F23102964205D00022C1F2B9
:1003E0003202964220D100BF8A684AB1012A14BF66
:1003F000C0F814B0C0F810B04FF0080914E000BF06
:100400004FF0040910E000BFCA6802F108090BE0D0
:100410004FF0000908E000BFCA6802F1040903E0D8
:10042000CA6802F10C0900BF22460646B8F5807F73
:1004300024BF203A043637680F25954027EA050582
:1004400009FA02F22A433260CA79D2067FF583AFF5
:1004500041F21803C4F202031A68AEF57E7642F048
:1004600001021A601A6802F001020192019A2AF050
:10047000030256F802B040F60002C4F201029042B4
:1004800010D040F60042C4F2010290423FF428AF7F
:1004900041F20002C4F20102009F904208BF02270D
:1004A0001FE700BF00271CE702B0BDE8F08F000087
:1004B00040F2FC00C2F2000000687047002804BF50
:1004C00001207047F0B581B0044690F83D0028B98E
:1004D000002084F83C00204600F092FB242084F8A1
:1004E0003D002068016821F001010160016841F4CC
:1004F00000410160016821F40041016000F0F2FC5C
:10050000636848F2A16CC0F2010C40F60011C0F221
:100510003D0163453CBF48F28041C0F21E01884264
:1005200002D2012001B0F0BD4DF68361C4F21B314F
:10053000A0FB01122168970CD1F804E04FF49676E5
:100540002EF03F0545EA92454D60774348F6381650
:100550000D6AC0F24106A7FB067625F03F0763450A
:1005600038BF960C721C3A430A62CA6948F2A06608
:100570004CF6FF77C0F20106B34222EA07020BD81D
:1005800001385B00B0FBF3F001306FF31F3004283B
:1005900098BF04201BE000BFA768013857B1192796
:1005A0007B43B0FBF3F001306FF31F3070B100F507
:1005B000804007E003EB4303B0FBF3F001306FF33F
:1005C0001F3018B100F5004001E000BF01201043CA
:1005D000C8610868D4E9072320F0C000104318431D
:1005E0000860886848F2FF3204F10C0790438CCF12
:1005F00018431043A6698860C86820F0FF0038439C
:100600003043C860086840F00100086000202021E5
:10061000206484F83D10206384F83E0001B0F0BDF2
:100620002DE9F04784B0044600201F46164689464F
:100630000290FFF73DFF94F83D10202924D1054694
:10064000206800BF816989071AD5FFF731FF411B78
:1006500020681A29F6D381698907F3D50020202163
:10066000206384F83D1084F83E00216C41F02001A5
:10067000216484F83C00022004B0BDE8F08700BF8C
:1006800094F83C10012903D1022004B0BDE8F087A2
:10069000012184F83C100168C90703D1016841F0C9
:1006A000010101600168DDF8308021F40061016022
:1006B000222184F83D10102184F83E10002121648D
:1006C00066626785618D0227C0F201072185A7F167
:1006D0000211E162E16A026811F5803F42F4806232
:1006E000026018BF01293DD1016841F480710160A9
:1006F00020464FF0011100224346009500F07CFE99
:1007000050B120680068C00544BF4FF400702064F9
:10071000012004B0BDE8F0872069B0F5804F27D1F3
:1007200049F00100C0B221684246086120463946BE
:100730002B4600F047FF0028EAD1208D02284BD03D
:1007400001285FD0002840F07380002003902068CB
:1007500041690391816903910399016841F4007132
:10076000016071E00829BFD0216B1129BCD0BFE71F
:10077000062000EAD916206806F1F0010161B91DD2
:10078000204642462B4600F01DFF0028C0D12068BD
:100790005FFA89F101612046394642462B4600F056
:1007A00011FF0028B4D10020039020680022416985
:1007B00043460391816903910399016841F4807173
:1007C000016020464FF00111009500F015FE002851
:1007D00097D146F0F100A6E72068016841F4006176
:1007E0000160EFF3108072B6002003902068416929
:1007F0000391816903910399016821F4806101608B
:1008000062B621E02068016821F480610160EFF3A5
:10081000108072B6002003902068416903918169BD
:1008200003910399016841F40071016062B60BE025
:100830002068016841F480610160002103914169F1
:100840000391806903900398208D002800F0CC80EC
:1008500040F208094BF2895A0237C2F20009C1F28C
:10086000F84A23260EE000BF10690870606A218DE7
:1008700001306062481E2085618D01396185010467
:1008800000F0B28080B203280CD802282CD00128B6
:100890004AD1204641462A4600F000FF002800F0D9
:1008A0009F8035E7204641462A4600F0F7FE0028A3
:1008B0007FF42EAF2068616A00690870606A226860
:1008C000411C208D616201382085638D013B638569
:1008D00053695B07D3D580B20328C5D1106820F4D3
:1008E00080601060C0E700BF2046394600224346C2
:1008F000009500F081FD00287FF40AAFEFF310802F
:1009000072B62068616A026842F40072026000698F
:100910000870606A218D01306062481E2085608DFC
:100920000138608562B65BE02046394600224346C6
:10093000009500F061FD00287FF4EAAE20680168B0
:1009400021F480610160EFF3108072B62068616A63
:1009500000690870606A218D01300139606221856B
:10096000618D01396185D9F80010C908A1FB0A120F
:10097000110A7143029102990139029102990029E9
:100980003ED021684A6952071AD40299013902916E
:100990000299A9B321684A69520711D40299013911
:1009A0000291029961B321684A69520708D40299F9
:1009B00001390291029919B321684A695207DAD5BF
:1009C0000A6842F400720A6009690170606A218D48
:1009D00001306062481E2085608D0138608562B6F6
:1009E0002068616A006940E7202084F83D0000200B
:1009F00084F83E0084F83C0004B0BDE8F08700BFF6
:100A000000202021206384F83D1084F83E00216CF2
:100A100041F02001216462B684F83C00012004B05A
:100A2000BDE8F0872DE9F04383B01E46174689469E
:100A30000446FFF73DFD94F83D10202924D10546DA
:100A4000206800BF816989071AD5FFF731FD411B76
:100A500020681A29F6D381698907F3D5002020215F
:100A6000206384F83D1084F83E00216C41F02001A1
:100A7000216484F83C00022003B0BDE8F08300BF8D
:100A800094F83C10012903D1022003B0BDE8F083A3
:100A9000012184F83C100168C90703D1016841F0C5
:100AA00001010160016840F2020821F40061016067
:100AB000212184F83D10102184F83E10002121648A
:100AC00067626685618DC0F201082185A8F1021177
:100AD000E162E16A0A9E11F5803F18BF01291DD12C
:100AE000016841F48071016020464FF0011100223D
:100AF0003346009500F080FC50B120680068C005C6
:100B000044BF4FF400702064012003B0BDE8F083BF
:100B10002069B0F5804F07D1FE2015E00829DFD00D
:100B2000216B1229DCD0DFE7062000EAD91021680A
:100B3000F030086108F10601204632462B4600F0ED
:100B400041FD0028E0D1FF20216800EA090008618A
:100B50002046414632462B4600F034FD0028D3D1D2
:100B600000200290206841690291806902900298F9
:100B700006E000BF204631462A4600F0DFFB18BBE6
:100B8000208D68B3204631462A4600F0CFFDD8B903
:100B9000606A2168024612F8013B0B616262628D55
:100BA000013A6285228D531E23854F697F07E1D567
:100BB0001B04DFD0437802300B616062608D013826
:100BC0006085901E2085D5E7206C04289CD1206884
:100BD000016841F400710160012003B0BDE8F083B9
:100BE0002068016841F400710160202084F83D0014
:100BF000002084F83E0084F83C0003B0BDE8F08398
:100C000010B586B045F200410068C4F20001002230
:100C10008842049202D006B010BD00BF41F2180411
:100C2000C4F20204206840F008002060206800F050
:100C3000080001900198C020029012200390032028
:100C4000059001F5384002A9FFF72AFB606840F4DF
:100C500000106060606800F400100190019806B018
:100C600010BD000040F2000040F2FC01C2F20000A2
:100C7000C2F2000100780A68104408607047000062
:100C800070B540F20006C2F2000640F20801327868
:100C9000C2F200014FF47A730968B3FBF2F2044622
:100CA000B1FBF2F1084600F031FB0F2C4FF00105CB
:100CB00008D838B94FF0FF3021460022002500F057
:100CC00003F87460284670BD10B54EF60C5CCEF289
:100CD000000CDCF80030C3F3022E8EF00704042C65
:100CE00028BF0424BEF103034FF0FF3E0EFA04F4C4
:100CF00038BF0023A14399400EFA03F39A431143EE
:100D000000F00F0200F160430901043A03F5644367
:100D10006244002848BF02F10C03197010BD0000A6
:100D2000002804BF012070472DE9F04381B042F252
:100D30000008C4F202080446D8F800000D4600F08E
:100D4000070088420CD2D8F8000020F007002843A2
:100D5000C8F80000D8F8000000F00700A8426CD1E5
:100D6000206841F204098107C4F2020917D541073E
:100D700005D5D9F8001041F4E061C9F80010010769
:100D800005D5D9F8001041F46051C9F80010D9F820
:100D90000010A26821F0F0011143C9F80010C0074B
:100DA00042D1D8F8000000F00700A8420CD9D8F8CA
:100DB000000020F007002843C8F80000D8F8000021
:100DC00000F00700A84238D12068410707D5D9F8BC
:100DD0000010E26821F4E0611143C9F80010000737
:100DE00008D5D9F80000216920F4605040EAC1001C
:100DF000C9F80000D9F8002002F00C00082841F2E0
:100E00000020C0F27A0051D141F68223C2F383411F
:100E1000C0F60003595CD2033CD440F60010C0F287
:100E20003D00484342E000BF606802280AD0012824
:100E30002AD159F8041C890308D4012001B0BDE867
:100E4000F08300BF59F8041C8901F6D5D9F80010C9
:100E500021F003010843C9F80000FFF729FB06460B
:100E600041F28837D9F80000616800F00C00B0EB5F
:100E7000810F96D0FFF71CFB801BB842F2D90320EC
:100E800001B0BDE8F08300BF59F8041C8907D4D530
:100E9000DCE700BFD9F8002041F68023C2F34042CE
:100EA000C0F600039A5C4843B0FBF2F0D9F800109A
:100EB00041F66822C1F30311C0F60002515C40F212
:100EC000080220FA01F140F20400C2F200000068BA
:100ED000C2F200021160FFF7D3FE002001B0BDE8AE
:100EE000F083000040F2080041F20401C2F2000069
:100EF000C4F202010068096841F67822C1F30221B8
:100F0000C0F60002515CC84070470000002804BFD2
:100F1000012070472DE9F04182B00446007841F28B
:100F20000006C007C4F202060CD0706800F00C0086
:100F3000042840F081803068800303D56068002871
:100F400000F04E81207880071BD5706810F00C0FE0
:100F500009D0706800F00C00082840F08B807068A1
:100F6000C00300F187803068800703D5206901281D
:100F700040F036813068616920F0F80040EAC10035
:100F800030602078000713D4207840072CD4E5691E
:100F9000002D00F02081706800F00C00082840F05F
:100FA000AF80012D40F00C81012002B0BDE8F0813E
:100FB000A069002800F08C800020C4F242200121AA
:100FC000C0F88014FFF774FA054600BF706A800706
:100FD00000F1BA80FFF76CFA401B0228F6D9032013
:100FE00002B0BDE8F08100BFF0695FEAC00808D434
:100FF000F06940F08050F061F06900F0805000909E
:10100000009847F20007C4F200073868C0054DD4C5
:10101000386840F480703860FFF74AFA054600BF30
:101020003868C00542D4FFF743FA401B6428F7D95B
:10103000032002B0BDE8F081706800F00C000828C1
:1010400003D17068C0033FF576AF6068002800F0F8
:101050000981B0F5A02F00F01D81B0F5803F00F0B0
:101060001D81306820F480303060306820F48020AA
:1010700017E100BF2069002840F20000C4F24220BE
:1010800000F08C8001210160FFF712FA054600BFD5
:10109000306880073FF56EAFFFF70AFA401B022861
:1010A000F6D9032002B0BDE8F08100BFE068002857
:1010B00000F09A80052800F0B180012800F0B2808D
:1010C000306A20F001003062306A20F00400ACE0A9
:1010D0000020C4F242200021C0F88014FFF7E8F994
:1010E000054600BF706A80077FF54EAFFFF7E0F955
:1010F000401B0228F6D9032002B0BDE8F08100BFF2
:101100000027C4F2422700203866FFF7D1F9022DEC
:1011100005460DD13068800140F1D680FFF7C8F94F
:10112000401B02284FF00300F4D902B0BDE8F08163
:10113000306880014FD5FFF7BBF9401B02284FF004
:101140000300F5D9F1E700BF40F20800C2F2000049
:10115000006844F6D351C1F26201A0FB0101480AC4
:10116000019000BF00BF0198411E002801913FF48B
:101170000BAF00BF0198411E002801913FF404AF5E
:1011800000BF0198411E002801913FF4FDAE00BF51
:101190000198411E00280191E4D1F5E6002101608B
:1011A000FFF786F9054600BF306880077FF5E9AE96
:1011B000FFF77EF9401B02284FF00300F4D9B4E793
:1011C0007068216A00F480328A4209D1616A00F4B1
:1011D0007010884204D1002002B0BDE8F08100BF49
:1011E000012002B0BDE8F081306A20F001003062D9
:1011F000306A20F004003062FFF75AF9054641F2E8
:10120000883700BF306A800722D5FFF751F9401BAD
:10121000B8424FF00300F5D987E700BF306A40F0CD
:1012200004003062306A40F001003062FFF740F99C
:10123000054641F2883700BF306A800708D4FFF7BF
:1012400037F9401BB842F7D9032002B0BDE8F0815E
:10125000B8F1000F3FF59BAEF06920F08050F061CF
:1012600095E600BF306820F480303060306820F4AC
:1012700080203060FFF71CF9054600BF306880030E
:101280007FF560AEFFF714F9401B64284FF00300B0
:10129000F4D94AE7306840F480203060306840F488
:1012A00080303060FFF704F9054600BF30688003E6
:1012B0003FF548AEFFF7FCF8401B6428F6D9032041
:1012C00002B0BDE8F08100BF206AB0F5803F05D1D3
:1012D0007168A26821F40031114371607168626A1B
:1012E00021F4741111430843706001203866FFF740
:1012F000DFF80446306880013FF56DAFFFF7D8F89E
:10130000001B02284FF00300F4D90EE7411E002015
:10131000B0EB116F1CBF012070474EF21002CEF2ED
:10132000000251604EF62351CEF20001F0230B7003
:101330000721906011607047FEE7000070B50368F8
:10134000044653F8140F400711D40E46481C29D008
:1013500086BB00BF1868400527D4FFF7A9F82368AB
:1013600053F8140F400737D518684007F2D500200E
:1013700070BD00BF18684007F9D41868400514D440
:1013800018684007F3D4186840050ED41868400761
:10139000EDD41868400508D4186840074FF00000E5
:1013A00048BF70BD18684005E4D56FF480601860D0
:1013B000042012E0154603E053F8140F4007D6D47A
:1013C00018684005F1D4FFF773F8401B2368B0425A
:1013D000F2D958694007EFD4202000212022216350
:1013E00084F83D2084F83E10226C104320640120D4
:1013F00084F83C1070BD00002DE9F04105460068FE
:101400001E46144601F47F0201338FB242D0DDF84C
:101410001880B2F5803F40F0878040693840C01B9B
:10142000B0FA80F04009A04240F0C8804EB924E0F4
:1014300040693840C01BB0FA80F04009A04240F03B
:10144000BD80FFF735F8A0EB08012868B142EFD95D
:1014500041693940C91BB1FA81F14909A142E7D17B
:101460009BE000BF40693840C01BB0FA80F04009E3
:10147000A0424FF0000040F0A280FFF719F8286862
:1014800041693940C91BB1FA81F14909A142E9D149
:1014900083E000BFB2F5803F24D100BF41693940ED
:1014A000C91BB1FA81F14909A14240F08780416925
:1014B0003940C91BB1FA81F14909A14240F07E804F
:1014C00041693940C91BB1FA81F14909A14275D17D
:1014D00041693940C91BB1FA81F14909A142DDD006
:1014E0006CE000BF81693940C91BB1FA81F149093B
:1014F000A14263D181693940C91BB1FA81F149091F
:10150000A1425BD181693940C91BB1FA81F1490916
:10151000A14253D181693940C91BB1FA81F149090E
:10152000A142DFD04AE000BF80693840C01BB0FA5A
:1015300080F04009A04241D146B923E0806938409B
:10154000C01BB0FA80F04009A04237D1FEF7B0FFCF
:10155000A0EB08012868B142F0D981693940C91B64
:10156000B1FA81F14909A142E8D116E08069384019
:10157000C01BB0FA80F04009A0424FF0000018BF35
:10158000BDE8F081FEF794FF286881693940C91BE6
:10159000B1FA81F14909A142E8D100202021286354
:1015A00085F83D1085F83E00296C41F02001296442
:1015B00085F83C000120BDE8F08100BF0020BDE8B7
:1015C000F0810000F0B581B0044600681D46436913
:1015D0008FB203EA0701B94202D1002001B0F0BD89
:1015E0004169164601323FD049053FD4CEB100BF14
:1015F000FEF75EFF411B2068B14203D941693940C3
:10160000B94215D141693940B942E6D0416949052D
:10161000EED52BE041693940B942DED04169490538
:1016200024D4FEF745FF206841693940B942F1D022
:10163000202023E041693940B942CED041694905B3
:1016400014D441693940B942C7D0416949050DD424
:1016500041693940B942C0D04169490506D4416960
:101660003940B942B9D041694905E3D5016841F42F
:10167000007101606FF4806141610420002120222B
:10168000216384F83D2084F83E10226C10432064CE
:1016900084F83C10012001B0F0BD000070B5044694
:1016A0000068154650F8143F5A063DD40E4629B935
:1016B00026E000BF50F8141F490635D40168C9065A
:1016C00021D4FEF7F5FE411B2068B142F2D94169F1
:1016D0004906EFD400202021206384F83D1084F8CF
:1016E0003E00206C40F0200018E000BFFEF7E0FE56
:1016F000206850F8141F4906ECD50168490613D438
:101700000168C906F2D56FF01001016000202021A8
:10171000206384F83D1084F83E00206C2064002093
:1017200084F83C00012070BD002070BD70B50368D6
:10173000044653F8140F000611D40E46481C29D055
:1017400086BB00BF1868400527D4FEF7B1FE2368AA
:1017500053F8140F000637D518680006F2D500209C
:1017600070BD00BF18680006F9D41868400514D48D
:1017700018680006F3D4186840050ED418680006EF
:10178000EDD41868400508D4186800064FF0000032
:1017900048BF70BD18684005E4D56FF480601860DC
:1017A000042012E0154603E053F8140F0006D6D4C7
:1017B00018684005F1D4FEF77BFE401B2368B04259
:1017C000F2D958690006EFD420200021202221639D
:1017D00084F83D2084F83E10226C104320640120E0
:1017E00084F83C1070BD0000FEE70000FEE700003A
:1017F0007047000070470000FFF734BA70470000E0
:10180000FEE70000F0B583B0054650BAADF80A0017
:101810004FF0FF360DF10A02284602230C460096CF
:10182000FFF700F940F2F807C2F2000738700A200B
:10183000FEF722FD387818B19DF80A0003B0F0BD1C
:101840000DF10A022846214601230096FEF7E8FE24
:1018500038700A20FEF710FD9DF80A0003B0F0BDB5
:10186000002B08BF70472DE9F04F83B040F2F80914
:101870001C4692460E46074600254FF0FF3B0DF1F1
:101880000A08C2F2000906E09DF80A000C994855C2
:101890000135AC4224D005EB0A0000BA000CADF8CB
:1018A0000A003846314642460223CDF800B0FFF721
:1018B000B9F889F800000A20FEF7DEFC99F800006C
:1018C0000028E1D13846314642460123CDF800B028
:1018D000FEF7A6FE89F800000A20FEF7CDFCD3E74C
:1018E00003B0BDE8F04F70472DE9F04F83B092464A
:1018F0001A782AB340F2F80B0D4606465F1C002406
:101900004FF47A790DF10908C2F2000B04EB0A00DA
:10191000010A8DF809108DF80A008DF80B20304669
:10192000294642460323CDF80090FFF77BF88BF859
:1019300000000A20FEF7A0FC3A5D0134002AE5D140
:1019400003B0BDE8F08F000090B000240120CDE985
:101950000B44CDE909440A9010200B904FF400206D
:1019600002250F9006A8CDE907440695CDE90D5450
:10197000FFF7CCFA20B1EFF3108072B6FEE700BF9C
:101980000F20CDE9010501A80021CDE9034405940C
:10199000FFF7C6F920B1EFF3108072B6FEE700BF83
:1019A00041F21800C4F20200016840F2800541F0E3
:1019B000040101600168C2F2000501F00401069112
:1019C00006990168002241F008010160006845F2B3
:1019D000004100F0080006900698C4F20001284675
:1019E00040F8241F48F2A061C0F201014FF4804387
:1019F000C0E90112C0E90323C0E90522C0E90722BA
:101A0000FEF75CFD20B1EFF3108072B6FEE700BF79
:101A100005F1240440F20C03C2F200032046A02189
:101A20000A22FFF761FF0520FEF726FC05F1010CF5
:101A30002046A0210A220C23CDF800C0FFF710FF9A
:101A4000287806E04FF47A70FEF716FC287801300B
:101A50002870C2B2132AF5D82046A021FFF7D2FE83
:101A6000297829444873EDE70000000000000000D9
:101A70000102030406070809000000000102030434
:101A8000010202030405060708090A0B0C0D0E0FDC
:101A900010100000B81A000800000020200000000C
:101AA00050010008D81A000820000020E0060000BD
:101AB000700100080000000001000000100000009C
:101AC0000024F400616C6979696C6D617A3132339C
:081AD0003400000000000000DA
:04000005080000ED02
:00000001FF
